:060000000C9462010C9457
:100006002C070C9400000C9400000C9400000C9437
:1000160056030C9400000C9400000C9400000C9401
:1000260000000C9400000C9400000C9400000C944A
:1000360000000C9400000C94A4020C9400000C9494
:1000460000000C9400000C9400000C9400000C942A
:1000560000000C9400000C9400000C9400000C941A
:1000660000000C9400000C9400000C9400000C940A
:1000760000000C94EA060C9400000C9400000C940A
:1000860000000C9400001027E80364000A00010039
:100096000010000110000100202020202020202038
:1000A6002020202020202020C80000000000000082
:1000B600000000000000000000000000000000003A
:1000C600000000000000000000002020202020206A
:1000D60020202020202020202020006D6F64652015
:1000E6003A204175746F006D6F6465203A204D614A
:1000F6006E75616C006D6F6465203A2054696D659C
:1001060072004D6F64652053656C656374004375BA
:10011600727461696E20446F776E004E6F206D6F4A
:100126007665004375727461696E2075702000559E
:10013600705F4D617800446F776E5F4D6178004364
:1001460075727461696E204E6F4D6F76000D656E27
:1001560074657220686F7572203A20000A0D20546B
:10016600696D652053657474696E67204F6B210A4B
:100176000D0025326468202532646D2025326473B3
:100186000073656C656374207570646F776E0055D7
:1001960070207265736572766174696F6E00446F64
:1001A600776E207265736572766174696F6E00533F
:1001B60074617274204D6F646520004175746F2000
:1001C6004D6F64652020004D616E75616C204D6F2A
:1001D60064650054696D6572204D6F646520000D7D
:1001E6000A6572726F722072657472790A0D000068
:1001F60011000005D0000C001105E10011001D05DD
:10020600D0000E002E05ED0011003C05D0000D00BB
:100216004D05FB0011005A05D0000C006B050801C6
:100226001000A7069E000100D406AE000D0077055B
:1002360014010800840521010C008C052901080021
:10024600980521010C00A00529010700AC05350120
:100256000D00B30514010900C0053C010E00C905D7
:1002660045010F00D70553011600E60562010E0091
:10027600FC0587010F000A06950111001906A40165
:100286000C002A0629010700360635010D003D0639
:10029600140109004A063C010C005306B5010C0086
:1002A6005F06C1010C006B06CD010C007706D90173
:1002B60010008306E5010A000400C6000000F89459
:1002C600EE27ECBBF1E0F5BFE5BFE0936C00F8E18B
:1002D600F1BDE1BD8DE0A2E0BB27ED938A95E9F77C
:1002E60080E090E1A0E0B1E0ED930197E9F7E6EF59
:1002F600F1E085919591009761F0A591B5910590F2
:100306001590BF01F00105900D920197E1F7FB01F1
:10031600F0CF8BBFEFEFEDBFE0E1EEBFC0E0D5E081
:100326000C944407E0916500E4600E943309ED7F78
:100336000E9433090E943809E4C0E0916500EB7F12
:100346000E943309ED7F0E9433090E943809D9C003
:10035600E881F0E00E944909D4C0E1E0EA93F8DFC1
:10036600E881EA93DFDFCDC0A881B981EC91E03066
:1003760041F0EA93F2DFE881F9813196E883F98367
:10038600F3CFDDC0E981A0E4EA02F001A881EA0F1B
:10039600E068EA93D2DFD3C0E1E00E944D090895F8
:1003A600EFEFEABBE0916400EF60E093640008952C
:1003B600F7DF0E9454090E9454090E945409ECE098
:1003C6000E944D09E6E00E944D09E6DF0895A881E6
:1003D600B981119749F40E945C09E0E0F5E00E94BA
:1003E6006209E1E1F5E026C0A881B981129749F4D6
:1003F6000E945C09EDE1F5E00E946209EEE2F5E09B
:1004060019C0A881B981139749F40E945C09ECE3ED
:10041600F5E00E946209EDE4F5E00CC0E881F9819F
:10042600309759F40E945C09EAE5F5E00E946209FA
:10043600EBE6F5E0FA93EA9397DF81C0C09AC1989C
:1004460006C0C098C198C2980895C098C19AC29A29
:10045600089514981C9AE0B5EB7FE0BDEAB7EABFB1
:10046600E9B7E06107C08C98AAE6B0E0EC91EC939E
:10047600E9B7E160E9BF08950E946709EA81D801FA
:10048600F0E0AE17BF0734F485E08A95F1F70F5F09
:100496001F4FF4CF1981088123960895E0916500D6
:1004A600E0610E946C09E0916500EF7E0E946C0994
:1004B60046C0E0E0E5BDE5B5E866E5BDE0E8E3BDDC
:1004C6000895EFE0E3BFE0E0E2BFEEE0E1BFE7B7AB
:1004D600E260E7BF0895E0919A00E869E0939A0028
:1004E600E0E0E0939B00E0939800E7E0E09399005A
:1004F60078940895E0919B00E072E1F3E881E0933F
:100506009C0021960895A881B981EC91E03041F0D4
:10051600EA93F0DFE881F9813196E883F983F3CF36
:100526000EC0E881E7B93F9AE6B1E66EE6B9EAE0C1
:10053600F0E00E944909349BFECFE4B1F5B1229662
:1005460008950E947209A8EBB6E00E948009AEEBFE
:10055600B6E00E948009A091B806B091B906A43F02
:10056600E1E0BE0714F40C945503A091C006B091C7
:10057600C106119711F00C945003F3010E948709EC
:10058600EA0FFB1FFF93EF930E948C09AF91BF9177
:10059600ED93FC93F30131963F01E9E0F0E06E162E
:1005A6007F0614F40C945003662477248824992437
:1005B600EAE0F0E08E169F0614F00C942403F40192
:1005C60031965F01EAE0F0E0AE16BF06B4F5F4013D
:1005D6000E948709AE0FBF1F0D901C90F5010E9467
:1005E6008709AE0FBF1F0E94C90AE015F10508F57D
:1005F600F4010E948709AE0FBF1F4D905C90F40175
:100606000E948709EA0FFB1F0F01F5010E94870967
:10061600AE0FBF1F0E94C90AD001ED93FC93F501EE
:100626000E948709EA0FFB1F40825182F40131962E
:100636005F01F50131965F01C5CFF40131964F0197
:10064600B7CF0E949209E0919B06F0919C06E09339
:10065600BA06F093BB060E949B09A93CE0E0BE07E0
:1006660014F4E0E019C00E949B09A139E1E0BE073D
:1006760014F4E8E011C00E949B09A935E2E0BE0728
:1006860014F4ECE009C00E949B09A132E3E0BE0726
:1006960014F4EEE001C0EFE0E5BBE0E0E093B8065D
:1006A600E093B906E0C30E94A009A091D606B091D6
:1006B600D706119721F1A091CE06B091CF061197DA
:1006C60041F4E0E0E093CE06E093CF060E94A40951
:1006D60016C00C2C0D2869F00C9B09C0C092C206EE
:1006E600D092C306CC24DD240E94A70901C0F4CF12
:1006F60006C0E1E0F0E0E093C406F093C506B3C39C
:100706000E94D80A0E94AA090E94B6090E948C0972
:10071600E093BA06F093BB060E94920902E310E04A
:100726000233E0E01E0714F40C94F903E091D406BA
:10073600F091D5060E949B09AE17BF0764F50E948B
:10074600BD090E94C0090E94C6099F010E94B60900
:100756002835E2E03E0784F40E94BD090E94CC09D8
:100766000E94CF09E7E7F5E00E94D509E8E2F0E04C
:100776000E94490966DE0DC00E94BD090E94AA09B1
:100786000E94D909E4E8F5E00E94D5090E94A4096F
:1007960001C0D5CF2BC00E94BD090E94C0090E948E
:1007A600DF099F010E94B6092935E2E03E0784F081
:1007B6000E94BD090E94E5090E94CF09ECE8F5E018
:1007C6000E94D509E8E2F0E00E9449093ADE0DC030
:1007D6000E94BD090E94AA090E94D909E8E9F5E02C
:1007E6000E94D5090E94A40901C0D5CFE091BA069E
:1007F600F091BB06A091BC06B091BD06EA17FB07B7
:100806003CF40E949B09E091BC06F091BD0608C02D
:10081600A091BC06B091BD06E091BA06F091BB0668
:10082600EA1BFB0B8F01E1E0F0E0EC15FD0551F052
:10083600B3DDEAEAF0E0E093D406F093D5060E9431
:10084600C00901C06DCF0E94DF0A249608950E9458
:1008560067090E94AA090E94C009E3E0F0E00E942D
:10086600E8098F01E2E0F0E0EC15FD0511F094DDFA
:100876006BC00C32E1E01E076CF50E94DF09E9351A
:10088600A2E0FA07A4F00E94E5090E94CF09E0EA77
:10089600F5E00E94D5090E94EC090E94F2091CF4B9
:1008A6000E94FA09FACF0E94000ACBDD12C00E940C
:1008B600AA090E94D909ECEAF5E00E94D5090E942E
:1008C600EC090E94F2091CF40E94030AFACF0E9466
:1008D600A40939C0093EE3E01E076CF10E94C6096F
:1008E600E835A2E0FA07A4F40E94CC090E94CF09D9
:1008F600E3EBF5E00E94D5090E94EC090E94F2099B
:100906001CF40E94FA09FACF0E94000A9ADD12C06E
:100916000E94AA090E94D909E0ECF5E00E94D509D7
:100926000E94EC090E94F2091CF40E94030AFACF05
:100936000E94A40908C00E94CF09E9ECF5E00E94D4
:10094600D5090E94A70989CF3FC2669786E1A0E034
:10095600B0E0E0EBF0E00E94E40A0E94D60AE0E094
:10096600E093D006E093D1060E94AA09E0E0E09366
:10097600D206E093D3060E94C009E7EDF5E00E9497
:10098600090A0E940D0A41F007DDE1E0F0E0E0937C
:10099600D006F093D10606C0A091D206B091D30638
:1009A60016977CF3E6EEF5E00E94090AE091D00680
:1009B600F091D106309711F00C946106E091C606CD
:1009C6000E94120A0E94150AE091C7060E94120AA6
:1009D600EA0FFB1F8F01E091C8060E94120A0E94CF
:1009E600150AE091C9060E94120AEA0FFB1F9F0131
:1009F600E091CA060E94120A0E94150AE091CB06EF
:100A06000E94120AEA0FFB1FAF010E945C09E7EA87
:100A1600F6E00E9462090E941B0A0E94CF09ECEFD1
:100A2600F5E00E94D509E1E0F0E0E093D606F09308
:100A3600D706E093CE06F093CF06E3E0F0E0E0932E
:100A4600CC06F093CD06E5E0F0E00E94E809EA8FD7
:100A5600FB8FAA8DBB8DA93EE3E0BE0784F1E09132
:100A6600CC06F091CD06309769F4E1E0F0E0E09332
:100A7600CC06F093CD060E94AA090E94CF09EAE0AF
:100A8600F6E00BC0E0E0E093CC06E093CD060E94D2
:100A9600AA090E94CF09E9E1F6E0FA93EA9364DC39
:100AA600E0E0E093D606E093D7060E94EC090E94A8
:100AB600F2091CF40E94FA09FACF0E94A709E091F4
:100AC600CE06F091CF06309729F4E4EFF1E00E94CC
:100AD600490901C0B8CF0E94EC090E94390AA83E14
:100AE600E3E0BE0724F10E94EC09042E052AC9F4AE
:100AF600022E032A89F4002E012A39F400E010E0C0
:100B060020E030E040E050E006C0015010402BE30A
:100B160030E04BE350E004C0215030404BE350E05E
:100B260002C0415050400E945C090E941B0A0E946C
:100B36000D0A11F031DCC1C000240016010641F493
:100B460000240216030621F400240416050609F003
:100B5600B3C0CC24DD24A091CC06B091CD0611976C
:100B660011F00C9408060E94EC090E943E0A2CF42F
:100B7600EEEDF1E00E94430AF8CF0E94EC090E94D4
:100B86003E0A2CF4E3ECF1E00E94430AF8CF0E94FF
:100B9600EC090E943E0A2CF4EAEAF1E00E94430ABC
:100BA600F8CF0E94DF09E935A2E0FA07A4F00E9417
:100BB600E5090E94CF09EAE2F6E00E94D5090E9403
:100BC600EC090E94F2091CF40E94FA09FACF0E946D
:100BD600000A37DC13C00E94AA090E94D909E6E37D
:100BE600F6E00E94D5090E94EC090E94F2091CF465
:100BF6000E94030AFACF0E94A40901C0D2CF0E9424
:100C06000D0A11F0C9DB59C057C00E94EC090E94B9
:100C16003E0A3CF4E1E6F0E060E070E00E94430A40
:100C2600F6CF0E94EC090E943E0A3CF4E2E5F0E0B1
:100C360060E070E00E94430AF6CF0E94EC090E9431
:100C46003E0A3CF4E1E4F0E060E070E00E94430A12
:100C5600F6CF0E94C609E835A2E0FA07A4F40E947E
:100C6600CC090E94CF09EDE3F6E00E94D5090E9467
:100C7600EC090E94F2091CF40E94FA09FACF0E94BC
:100C8600000ADFDB13C00E94AA090E94D909EAE420
:100C9600F6E00E94D5090E94EC090E94F2091CF4B4
:100CA6000E94030AFACF0E94A40901C0D2CF0E9473
:100CB6000D0A11F071DB01C010CF02C0CC24DD2477
:100CC6000E94DD0A6C9608950E9467090E94AA098F
:100CD600E5E0F0E00E94E8098F01093EE3E01E0727
:100CE600C4F00E94470A13973CF0E1E0F0E0E0937D
:100CF600C206F093C30604C0A2ECB6E00E944C0AFA
:100D06000E94EC090E94F2091CF40E94FA09FACF2B
:100D16001EC00436E0E01E07F4F40E94470A12974C
:100D26003CF4E3E0F0E0E093C206F093C30607C0AC
:100D3600A2ECB6E0ED91FD913197FE93EE930E9401
:100D4600EC090E94F2091CF40E94FA09FACFE4E6C3
:100D5600F0E00E944909E091C206F091C30630977F
:100D660029F40E94CF09E3E5F6E01AC00E94470A7B
:100D7600119729F40E94CF09EFE5F6E011C00E9411
:100D8600470A129729F40E94CF09EBE6F6E008C05D
:100D96000E94470A139739F40E94CF09E7E7F6E065
:100DA600FA93EA93E1DAA091C406B091C5061197C9
:100DB60051F4C090C206D090C306E0E0E093C406AA
:100DC600E093C50601C084CF0991199108950E9448
:100DD60072091A9310919C00103310F01A3308F020
:100DE60036C00E94520A16973CF0E6E0F0E0E09327
:100DF600D206F093D3062BC00E94520A109741F0F8
:100E06000E94520A129721F00E94520A149791F4F6
:100E1600103310F0163308F003C00E94570A09C0B9
:100E2600E3E8F6E00E94090AE0E0E093D206E093E8
:100E3600D30602C00E94570A0E94520A129721F056
:100E46000E94520A149719F4EAE3EA9353DB1991C4
:100E56000AC00E94A0090E948C09E093D406F09370
:100E6600D5060E94000AE991EFBFF991E991B9917F
:100E7600A9919991899179916991F990199009901F
:100E86001895EFEFE7BBE4BBE5BBC098C198C798E0
:100E9600E0916400E061E09364008ADADADAE3DA8A
:100EA60008DB0FDBE5B5E160E5BD15DB0E94610AF5
:100EB600E1E0F0E0EC15FD0521F40E94610A20DC7A
:100EC60016C0E2E0F0E0EC15FD0521F40E94610A8F
:100ED600BEDC0DC00E940D0A21F40E94610A35DDB8
:100EE60006C00C2C0D2819F40E94610AEDDEE0CF35
:100EF600FFCF1A930A93AA81BB8112960E94C90A50
:100F0600309721F1AA81BB8114960E94C90A8F01EC
:100F1600309761F00230E0E01E07B8F0F801319733
:100F26008F01AA81BB811496ED93FC93AA81BB81A4
:100F360012960E948009AC81A083AA81BB810E947F
:100F4600C90AFF2312F00E944C0A06C0AA81BB817F
:100F5600EFEFFFEFED93FC93198108812596089535
:100F660026970E94D60A10E0AC85BD85E0E0F0E049
:100F7600ED93FC93EA89FB893196EA8BFB8B3197DB
:100F8600E4912E2FE03011F40C94E008E12FE030CC
:100F960039F4253211F411E002C00E94650A0CC131
:100FA600E130A9F4253219F40E94650A04C112E061
:100FB60040E000E02D3211F401E0FEC02B3211F4C6
:100FC6004BE2FAC0203211F440E2F6C002C0E23031
:100FD60039F450E013E0203311F40068EDC004C08A
:100FE600E33011F00C94DF08203310F02A3308F0B8
:100FF60007C0AAE05A9F502DE22FE0535E0FDCC0D7
:10100600E22FE33649F40E946E0AE889F989A48141
:10101600AA930E94740ACFC0E33741F40E946E0A75
:101026000E947C0A0E941E091E2F0AC0E03761F446
:101036000E946E0A0E947C0A0E9428091E2F0860E0
:1010460002600F7730E035C0E43611F0E93611F46E
:10105600046002C0E53731F4ECE8F0E0EE83FF838C
:1010660015E00DC0E83511F4086004C0E83711F04A
:101076000C94DE08E6E9F0E0EE83FF8314E002FF5D
:1010860014C00E946E0A0E94860AAB85AA233AF40F
:10109600EA85FB850E94A50AEA87FB874DE2403078
:1010A60011F01F5F01C00B7F04C00E946E0A0E94F0
:1010B600860A00FD11C0151778F407FF08C002FF65
:1010C60004C00B7F242F115001C020E301C020E291
:1010D6000E94650A5150EFCF312F01FF17C0303003
:1010E600A1F003FF06C0EE81FF812591EE83FF8309
:1010F60005C0AE81BF812D91AE83BF830E94650A74
:10110600503009F051503150EACF4BC020E3EE8108
:10111600FF810E94CD0AE887F987EE81FF8132962A
:10112600EE83FF83E885F985AA85BB85AE17BF07E1
:1011360050F02F5FA885B985EA85FB85EA1BFB0B76
:10114600EA87FB87EFCF2A3328F003FF02C0295F27
:1011560001C0295D04FD1AC0213320F4A885B98594
:10116600119709F409C0531710F000FF01C013C00E
:1011760020E207FF0BC020E3006102FF07C00B7FE0
:101186004A930E94740A503009F051500E94650A31
:10119600503009F051503150A885B985129708F0A2
:1011A600B5CF00FF08C0503031F05150E0E2EA936D
:1011B6000E94740AF8CF10E0DDCEAC85BD850E9492
:1011C600C90A0E94DD0A64960895FF92F82E2697B2
:1011D6000E94D80A0E948E0A309719F4EFEFFFEFAB
:1011E60025C0DE0116960E94A10A8D010E948E0A74
:1011F600EE83FF83E0E0E887E987DE011A960E9426
:10120600A10A0E94C90AFA93EA931A930A93ECE791
:10121600F7E0FA93EA93FE013A96FA93EA93A0DE90
:101226009F01AE81BF81E0E0EC93F9010E94DF0AE5
:101236002A96FF900895A991B991EE27FF276D91FF
:10124600662311F03196FBCF0895AA27BB27E991B3
:10125600F9910590002011F01196FBCFFD0108953C
:10126600E0936500E09165000895E160E093650014
:1012760086EF8A95F1F7E881EBBB86EF8A95F1F761
:10128600E0916500EE7FE09365000895FA93EA9396
:101296000C94950AEA930E94A001E2E0EA930C946A
:1012A600AB01E8E3EA930E94A001E4E0EA930C9420
:1012B600AB01E0E0EA93E1E0EA930C94C501FA930E
:1012C600EA930E94B701F5CF1A930A9300E010E063
:1012D6000895E0936500E881EA930C943F020A9230
:1012E6001A92FA926A937A938A939A93AA93BA93E2
:1012F600EA93FA93EFB7EA930895ED91FD9131964B
:10130600FE93EE9331970895A3E9B6E0EE0FFF1F23
:101316000895E4E0F0E0FA93EA930C949402E091E5
:10132600BA06F091BB06E093BC06F093BD0608959D
:10133600A091BA06B091BB060895D1DFE4E6F0E0CD
:10134600A5CFE8ECF0E0A2CFE4E6F0E09FCFE1E045
:10135600EA93E0E0EA930E94C501E7EAF6E0FA9331
:10136600EA930C94B701E1E0F0E0E093C006F09355
:10137600C1060895E5E0F0E089CFE0E0E093C0061D
:10138600E093C1060895E2E0F0E0FA93EA930C9444
:1013960094020E942802DBCFE1E0EA93E0E0EA93C0
:1013A6000C94C501FA93EA930C94B701E1E0EA9331
:1013B600E5E0EA930C94C501E1E0F0E0FA93EA93E4
:1013C6000C9494020E942102C2CFFA93EA930C94E1
:1013D6009402E0E0E093BE06E093BF060895A09174
:1013E600BE06B091BF06AD37E0E0BE070895E3EC58
:1013F600F0E0FA93EA930C945102E4E1F0E046CF70
:10140600ECE2F1E0FA93EA930C945102FA93EA9330
:101416000C948602E3E0F0E0EC15FD050895F0E09B
:10142600F0970895AAE0B0E00E94B60ADF01089599
:10143600FE013696FA93EA93E8E7F1E0FA93EA9327
:10144600F8010E94A90A0E94D10AF9010E94A90A7C
:101456000E94D10AFA010E94A90A0E94D10A8CE0D0
:101466000E94E8086096FE0136969CCFA091BE06C3
:10147600B091BF060895FADFAA3FE0E0BE070895DF
:10148600FA93EA930C945102A091C206B091C30656
:101496000895ED91FD913196FE93EE930895A091F6
:1014A600D206B091D3060895E091D206F091D30604
:1014B600EA53F94F1083A2EDB6E0EBCFDA92CA9267
:1014C6000C94EA012A93ED85FE85FA93EA93E9895D
:1014D600FA8909950895E889F9893497E88BF98B93
:1014E6000895ED85FE85FA93EA93E989FA890995C7
:1014F6000895A889B98914960E94C90AEE83FF83C4
:10150600FA93EA930895A889B98914960E94C90A9C
:10151600EA87FB870895DE011C960E94A10A0E94B5
:10152600C90A0895E991F991309639F086E69EE068
:101536000197F1F7A8953197C9F708950024AF0DE3
:10154600B01D0895F195E195F04008956F2F660F4F
:10155600660B762F0895FA9FF02DEB9FF00DEA9F0C
:10156600E02DF10D089504D0F6DF0EF4EBDF0895BB
:10157600E894F7FF02C0E6DF6894B7FF06C0A095BF
:10158600B095119600F8039400FA0895ED91FC9138
:10159600119708950590F491E02D08957A936A9332
:1015A600FA93EA9308955A934A933A932A931A938D
:1015B6000A9308955D814C813B812A8119810881B6
:1015C6000895AC0FBD1F05900D928A95E1F7089519
:00000001FF
