:020000000C945E
:10000200C7000C9400000C9400000C9400000C94A7
:1000120000000C9400000C9400000C9400000C945E
:1000220000000C9400000C9400000C9400000C944E
:1000320000000C9400000C9400000C9400000C943E
:1000420000000C9400000C9400000C9400000C942E
:1000520000000C9400000C9400000C9400000C941E
:1000620000000C9400000C9400000C9400000C940E
:1000720000000C9400000C9400000C9400000C94FE
:1000820000000C9400000C940000E903EA03EB0367
:10009200EC03ED03EE03EF03F003F103F203E803D5
:1000A200D007B80BA00F88137017581B401F2823C6
:1000B200F20357454C434F4D45004841505059209B
:1000C200484F5553450057524F4E472050575249BB
:1000D2004748542050573100320033003400350075
:1000E200360037003800390030002A0050573A20D5
:1000F2002020200052202020203A202020202020D2
:100102002855290052202020203A2020202020207B
:100112002843290050726573732050572100140040
:100122001E05A00007004005B4000B004805BC00F6
:1001320008005405D00001005D05D80001005F05EC
:10014200DA0001006105DC0001006305DE00010048
:100152006505E00001006705E20001006905E400B1
:1001620001006B05E60001006D05E80001006F0566
:10017200EA0001007105EC0007007305EE000A00B9
:10018200000516010A000A0516010000F894EE2780
:10019200ECBBF1E0F5BFE5BFE0936C00F8E1F1BD27
:1001A200E1BD8DE0A2E0BB27ED938A95E9F780E0FF
:1001B20090E1A0E0B1E0ED930197E9F7E0E2F1E030
:1001C20085919591009761F0A591B5910590159053
:1001D200BF01F00105900D920197E1F7FB01F0CF0D
:1001E2008BBFEFEFEDBFE0E1EEBFC0E0D5E00C94D6
:1001F200CB04EFEFEABBEFE001C3E0916500E460FE
:1002020010D5ED7F0ED512D53AC0E0916500EB7F97
:1002120008D5ED7F06D50AD532C0E881F0E017D5C2
:100222002EC0E881EA93E9DFE1E0F0E010D527C0D3
:10023200A881B981EC91E03041F0EA93F2DFE881E4
:10024200F9813196E883F983F3CF37C2E981A0E4DB
:10025200EA02F001A881EA0FE068EA93D6DF2DC234
:10026200E1E0F9D40895A881A13011F4E4E104C0D9
:10027200E881E03021F4E0E1EA93F2D4CEDF219686
:100282000895E8E3E8D4E8E3E6D4E8E3E4D4EEE072
:10029200E2D4E6E0E0D4E4DF0895E6D4E0933C055E
:1002A200F0933D05EAE3F5E002D5E8E3F5E0FFD49B
:1002B200E6E3F5E0FCD4E4E3F5E0F9D4E0E0E09332
:1002C2003205E09333050895CFD4E0933E05F093D1
:1002D2003F05089528970E94E407EED4EC87FD8736
:1002E200F0D4EA87FB87F2D4E887F987F4D4EE8367
:1002F200FF83EC85FD85F4D4EA85FB85F7D4E88598
:10030200F985FBD4E60FF71FAE81BF81EA0FFB1F11
:100312008F01D801E8EEF3E00E94C407F3D411F490
:10032200F6D435C0E130A0E0FA0711F4F0D42FC0C2
:10033200E230A0E0FA0711F4EAD429C0E330A0E0E9
:10034200FA0711F4E4D423C0E430A0E0FA0711F470
:10035200DED41DC0E530A0E0FA0711F4D8D417C0EE
:10036200E630A0E0FA0711F4D2D411C0E730A0E0E1
:10037200FA0711F4CCD40BC0E830A0E0FA0711F46C
:10038200C6D405C0E930A0E0FA0709F4C0D4DA0106
:10039200E8EEF3E00E94BC07EC87FD87DA01E4E6B1
:1003A200F0E00E94BC07BF01DA01E8EEF3E0BAD444
:1003B200DB01AE1BBF0BAA87BB87DA01EAE0F0E0E4
:1003C2000E94BC07BF01DA01E4E6F0E0ABD4DB0136
:1003D200AE1BBF0BA887B987DA01EAE0F0E0A2D42E
:1003E200DF01FA01EA1BFB0BEE83FF839ED4EC854F
:1003F200A1D4EA859FD4E8859DD4EE819BD40E9446
:10040200EB072E96089528970E94E60755D4EA87AF
:10041200FB8757D4E887F98759D48FD4E885F985C3
:1004220065D4EE81FF8169D490D461F49ED419F42D
:10043200E1E0F0E002C0E2E0F0E0E0931A05F093C0
:100442001B058FC0E130A0E0FA0761F48ED419F4E5
:10045200E1E0F0E002C0E2E0F0E0E0931A05F093A0
:100462001B057FC0E230A0E0FA0761F47ED419F4E4
:10047200E1E0F0E002C0E2E0F0E0E0931A05F09380
:100482001B056FC0E330A0E0FA0761F46ED419F4E3
:10049200E1E0F0E002C0E2E0F0E0E0931A05F09360
:1004A2001B055FC0E430A0E0FA0761F45ED419F4E2
:1004B200E1E0F0E002C0E2E0F0E0E0931A05F09340
:1004C2001B054FC0E530A0E0FA0761F44ED419F4E1
:1004D200E1E0F0E002C0E2E0F0E0E0931A05F09320
:1004E2001B053FC0E630A0E0FA0761F43ED419F4E0
:1004F200E1E0F0E002C0E2E0F0E0E0931A05F09300
:100502001B052FC0E730A0E0FA0761F42ED419F4DE
:10051200E1E0F0E002C0E2E0F0E0E0931A05F093DF
:100522001B051FC0E830A0E0FA0761F41ED419F4DD
:10053200E1E0F0E002C0E2E0F0E0E0931A05F093BF
:100542001B050FC0E930A0E0FA0759F40ED419F4E4
:10055200E1E0F0E002C0E2E0F0E0E0931A05F0939F
:100562001B0580C028970ED4E8EEF3E00E94A9078D
:10057200EE83FF830CD4BF0105D4E8EEF3E00DD483
:10058200DB01AE1BBF0BAC83BD83FCD3EAE0F0E022
:100592000E94A907BF01FBD3AAE0B0E00E94960720
:1005A200DB01AE1BBF0BAA83BB83ECD3EAE0F0E016
:1005B200F4D3E8D3AE1BBF0BA883B983EE81BAD3C1
:1005C200EC81B8D3EA81B6D3E881B4D328960895F2
:1005D20028970E94E60770D3EA87FB8772D3E887E1
:1005E200F98774D3AAD3E885F98580D3EE81FF8198
:1005F20084D3ABD311F4D8D335C0E130A0E0FA07ED
:1006020011F4D2D32FC0E230A0E0FA0711F4CCD318
:1006120029C0E330A0E0FA0711F4C6D323C0E430C6
:10062200A0E0FA0711F4C0D31DC0E530A0E0FA073C
:1006320011F4BAD317C0E630A0E0FA0711F4B4D32C
:1006420011C0E730A0E0FA0711F4AED30BC0E830D6
:10065200A0E0FA0711F4A8D305C0E930A0E0FA0738
:1006620009F4A2D30E94ED072C960895A09780E288
:10067200A0E0B0E0E6EFF0E00E94F207A0D3FE01B6
:100682007096A2D3A4D3FE019FD344245524E1E063
:10069200F0E06F01A0D3A09608952297E2E5E883E7
:1006A200E0E0E9838CD3FE018FD395D39CD3E1E0C4
:1006B200F0E0E0931605F09317052296089599D37A
:1006C200EC30A0E0FA0721F4E1E0F0E02F011DC0D8
:1006D200ED30A0E0FA0721F4E1E0F0E03F0115C0BF
:1006E200EE30A0E0FA0721F4E1E0F0E04F010DC0A6
:1006F200EF30A0E0FA0721F4E1E0F0E05F0105C08D
:10070200EB30A0E0FA0709F479D3E6E9F0E069C03A
:1007120070D3E130A0E0FA0721F4EDE5F5E054D31F
:1007220045C0E230A0E0FA0721F4EFE5F5E04CD352
:100732003DC0E330A0E0FA0721F4E1E6F5E044D35E
:1007420035C0E430A0E0FA0721F4E3E6F5E03CD35B
:100752002DC0E530A0E0FA0721F4E5E6F5E034D358
:1007620025C0E630A0E0FA0721F4E7E6F5E02CD355
:100772001DC0E730A0E0FA0721F4E9E6F5E024D352
:1007820015C0E830A0E0FA0721F4EBE6F5E01CD34F
:100792000DC0E930A0E0FA0721F4EDE6F5E014D34C
:1007A20005C0309719F4EFE6F5E00ED385D2E09359
:1007B2003A05F0933B0585D2E0933805F09339056D
:1007C20085D2E0933605F093370585D2E093340560
:1007D200F09335050ED3E0933205F0933305E2E34F
:1007E200F0E0FA93EA930E9463070895EFE0E4BB16
:1007F200E0EFE1BBE5BBE0916400E061E0936400FF
:1008020008950E94E60700E010E020E030E0EC816D
:10081200A1E00E947307E095E5BB85E08A95F1F7B8
:10082200E3B3F0E00E947B078F01F801EF70F070F4
:100832009F01F901ABC01A930A930FEF1FEFAC812E
:10084200BD81E3E0F0E0EA1BFB0B3097C9F4AA811B
:10085200BB81119711F401E010E0AA81BB811297CC
:1008620011F402E010E0AA81BB81149711F403E0B5
:1008720010E0AA81BB81189711F40CE010E056C079
:10088200E130A0E0FA07C9F4AA81BB81119711F403
:1008920004E010E0AA81BB81129711F405E010E098
:1008A200AA81BB81149711F406E010E0AA81BB81F2
:1008B200189711F40DE010E039C0E230A0E0FA0719
:1008C200C9F4AA81BB81119711F407E010E0AA8153
:1008D200BB81129711F408E010E0AA81BB81149742
:1008E20011F409E010E0AA81BB81189711F40EE01F
:1008F20010E01CC0E330A0E0FA07C1F4AA81BB817A
:10090200119711F40AE010E0AA81BB81129711F449
:1009120000E010E0AA81BB81149711F40BE010E013
:10092200AA81BB81189711F40FE010E0F801198138
:1009320008812EC01A930A9300E010E0EA81FB813D
:100942000E171F0730F485E08A95F1F70F5F1F4FEE
:10095200F5CF19810881249608950E94E607EC815B
:10096200FD81A0E5B3EC0E94A9079F0100E010E021
:10097200021713075CF4E0916500E06146D2E09152
:100982006500EF7E42D20F5F1F4FF2CF0E94ED074C
:1009920026960895229749E050E02BDC27DF71DC90
:1009A2003BD242D249D28BDEE1E0F0E0E415F5051C
:1009B20031F445D252D240E050E052DC57DEE1E061
:1009C200F0E0E615F70541F44BDC26D22DD237D202
:1009D20044D249E050E030D2A0911C05B0911D05EF
:1009E2001197A9F43DDC59DE40E050E066247724FB
:1009F200E0E0E0931405E093150544245524CC244B
:100A0200DD2488249924E0931A05E0931B0500E075
:100A120010E00430E0E01E0714F00C9410061A9364
:100A22000A93EFDE9F011A930A933A932A9303DF04
:100A3200E883F983E1E0F0E00AD1A881B981AF3F10
:100A4200EFEFBE0711F40C940D06E881F981E093F3
:100A52001805F09319054930E0E05E070CF458DE02
:100A6200E1E0F0E0EC15FD0511F00C948A05A0918F
:100A72001805B09119051A9714F44F5F5F4FE4E01F
:100A8200F0E0E417F50781F51FDCA0913E05B09177
:100A92003F05E8EEF3E00E9490070E2EE3EFF3E04D
:100AA2000E948A07E021D9F0E1E0EA93DCDB12DC64
:100AB200E1E0EA93E2E0EA93C9DBE09138053AD15A
:100AC200E091360537D1E091340534D1E091320519
:100AD20031D1E3DBE1E0EA93E7E0C5D105C0E1E033
:100AE200F0E02F0140E050E0C3D131F0EFE0EA93B3
:100AF200B7D0E42FEE5FD2D1E8E0F0E0E417F507DB
:100B020041F466DD40E050E0CC24DD2495D149E09B
:100B120050E0A0911605B0911705119711F00C94B1
:100B22000D06EEE0EA9371DBA0911805B09119056C
:100B32001A9714F44F5F5F4FE4E0F0E0E417F50713
:100B4200F1F4ABDB1FD1E8EEF3E00E9490070E2E2A
:100B520019D1E3EFF3E00E948A07E02169F0E5D0C2
:100B6200E0E0F5E031D133D1E3E7F5E02DD1E1E08A
:100B7200EA93E4E078D103C041D140E050E078D17B
:100B820031F0EFE0EA936CD0FA01319787D1E8E0D7
:100B9200F0E0E417F50719F44FD149E050E088245A
:100BA20099248DDDE1E0F0E0E815F905A9F52BDCEB
:100BB200A0911A05B0911B05119769F408D1E4E5DB
:100BC200F5E002D170D174D178D147D1882499242B
:100BD20049E050E031D1A0911A05B0911B0512975E
:100BE200D9F43EDB5ADDBEDCA0D0EAE0F5E0ECD081
:100BF200EED0E3E7F5E0E8D0E1E0EA93E4E033D1D8
:100C0200E0E0E0931A05E0931B0544E050E055D183
:100C12004FD149D1882499240F5F1F4FFACEC3CEFA
:100C2200FFCFE0936500E09165000895E160E093F5
:100C3200650086EF8A95F1F7E881EBBB86EF8A952E
:100C4200F1F7E0916500EE7FE09365000895FA9375
:100C5200EA930C946307EA93D8DAE2E0EA93DDCAF6
:100C6200D4DAE1E0EA930895E0913805F09139058C
:100C7200A8EEB3E00E9496077E2F8F2FA091360533
:100C8200B0913705E4E60E949E077E0F8F1FA09168
:100C92003405B0913505EAE00E949E07E70FF81F80
:100CA200A0913205B0913305EA0FFB1F0895A0E031
:100CB200B0E0A083B1830895E0913805F091390541
:100CC2000895E0913605F09137050895E0913405D5
:100CD200F09135050895E0913205F09133050895BC
:100CE200A8EEB3E00E94A407BF010895A4E6B0E015
:100CF2000E94A4076E0F7F1F0895AAE0B0E00E9431
:100D0200A40708959F01F901319730970895F901D9
:100D12003197AEE1B5E0EE0FFF1FAE0FBF1F4D9151
:100D22005C9108950E94BC07E8CFE0E0EA93E7E017
:100D3200EA938CCAE05DEA9374CAEE83FF83CBDF49
:100D4200EC83FD83EA85FB85CBCFE60FF71FAC81F1
:100D5200BD81EA0FFB1F8F01A0913C05B0913D05BB
:100D6200E8EEF3E00E94C107CDCFF9013197AEE181
:100D7200B5E0EE0FFF1FAE0FBF1F0E94E007E017A6
:100D8200F1070895A0913C05B0913D050895FADF61
:100D9200E4E6F0E00E94A90708950E94A907AAE0EC
:100DA200B0E00E9496070895F9013197AEE1B5E0EF
:100DB200EE0FFF1FEA0FFB1F008311830895E0E08F
:100DC200EA93E1E0EA9342CAFA93EA9331CAE1E094
:100DD200EA93EA933BCAEEE0EA9317DAE0E0EA9399
:100DE200E2E0EA9333CAE0E0E0931C05E0931D05DC
:100DF2000895E0911805F09119050895E1E0F0E0F9
:100E0200E0931C05F0931D050895E0936500EC81C5
:100E1200FD81FA93EA938ECDE0E0EA93E2E0EA9371
:100E220015DAE0E4F5E0D0CFE1E0EA93E2E0EA931C
:100E32000DDAE8E4F5E0C8CFECE0EA93E6C966240F
:100E42007724E0E0E0931405E0931505442455244B
:100E5200CC24DD2488249924C6CFE0E0E093160553
:100E6200E09317050895EA93F1D9EFE0EA93CDC92B
:100E7200DA01E5E0F0E00E9484070E2EE6E0F0E001
:100E82000E9484070E2AE7E0F0E00E9484070E2AFF
:100E9200E8E0F0E00E948407E0290895EA93D6D9B9
:100EA200E1E7F5E091CFEDEDF1E0FA93EA9355CD6C
:100EB200EAE7F1E0FA93EA9350CDEEE3F1E0FA9338
:100EC200EA934BCDE991F991309639F086E69EE0AE
:100ED2000197F1F7A8953197C9F70895F195E19532
:100EE200F0400895EE230E2EEA2F19F0EE0F0A9429
:100EF200E9F70895F595E795F595E795F595E79561
:100F0200F595E7950895EA17FB07E1E009F0EE276A
:100F12000895AE17BF07E1E008F0EE270895EA173B
:100F2200FB07E1E008F0EE270895FA9FF02DEB9F12
:100F3200F00DEA9FE02DF10D08956E2F6A9FF001EA
:100F42006B9FF00D08952DD0F0DF0EF4C7DF0895EA
:100F52000024112490E1AA0FBB1F001C111C0E1AC1
:100F62001F0A18F40E0E1F1E01C0A1609A9599F770
:100F7200FD01D001089515D0EBDF0EF4AFDF089527
:100F8200E7DFFD010895E894B7FF04C0A095B0958E
:100F920011966894F7FDA2DFDBDFFD010EF49EDF00
:100FA2000895E894F7FF02C099DF6894B7FF06C07E
:100FB200A095B095119600F8039400FA0895ED916A
:100FC200FC91119708955A934A933A932A931A934C
:100FD2000A9308955D814C813B812A8119810881A0
:100FE2000895AC0FBD1F05900D928A95E1F7089503
:00000001FF
